{
  "_format": "hh-sol-artifact-1",
  "contractName": "Ethpins",
  "sourceName": "contracts/Ethpins.sol",
  "abi": [
    {
      "inputs": [],
      "stateMutability": "nonpayable",
      "type": "constructor"
    },
    {
      "anonymous": false,
      "inputs": [
        {
          "indexed": true,
          "internalType": "address",
          "name": "owner",
          "type": "address"
        },
        {
          "indexed": true,
          "internalType": "address",
          "name": "spender",
          "type": "address"
        },
        {
          "indexed": false,
          "internalType": "uint256",
          "name": "value",
          "type": "uint256"
        }
      ],
      "name": "Approval",
      "type": "event"
    },
    {
      "anonymous": false,
      "inputs": [
        {
          "indexed": true,
          "internalType": "address",
          "name": "from",
          "type": "address"
        },
        {
          "indexed": true,
          "internalType": "address",
          "name": "to",
          "type": "address"
        },
        {
          "indexed": false,
          "internalType": "uint256",
          "name": "value",
          "type": "uint256"
        }
      ],
      "name": "Transfer",
      "type": "event"
    },
    {
      "inputs": [],
      "name": "DOMAIN_SEPARATOR",
      "outputs": [
        {
          "internalType": "bytes32",
          "name": "",
          "type": "bytes32"
        }
      ],
      "stateMutability": "view",
      "type": "function"
    },
    {
      "inputs": [
        {
          "internalType": "address",
          "name": "owner",
          "type": "address"
        },
        {
          "internalType": "address",
          "name": "spender",
          "type": "address"
        }
      ],
      "name": "allowance",
      "outputs": [
        {
          "internalType": "uint256",
          "name": "",
          "type": "uint256"
        }
      ],
      "stateMutability": "view",
      "type": "function"
    },
    {
      "inputs": [
        {
          "internalType": "address",
          "name": "spender",
          "type": "address"
        },
        {
          "internalType": "uint256",
          "name": "amount",
          "type": "uint256"
        }
      ],
      "name": "approve",
      "outputs": [
        {
          "internalType": "bool",
          "name": "",
          "type": "bool"
        }
      ],
      "stateMutability": "nonpayable",
      "type": "function"
    },
    {
      "inputs": [
        {
          "internalType": "address",
          "name": "account",
          "type": "address"
        }
      ],
      "name": "balanceOf",
      "outputs": [
        {
          "internalType": "uint256",
          "name": "",
          "type": "uint256"
        }
      ],
      "stateMutability": "view",
      "type": "function"
    },
    {
      "inputs": [
        {
          "internalType": "uint256",
          "name": "amount",
          "type": "uint256"
        }
      ],
      "name": "burn",
      "outputs": [],
      "stateMutability": "nonpayable",
      "type": "function"
    },
    {
      "inputs": [
        {
          "internalType": "address",
          "name": "account",
          "type": "address"
        },
        {
          "internalType": "uint256",
          "name": "amount",
          "type": "uint256"
        }
      ],
      "name": "burnFrom",
      "outputs": [],
      "stateMutability": "nonpayable",
      "type": "function"
    },
    {
      "inputs": [],
      "name": "decimals",
      "outputs": [
        {
          "internalType": "uint8",
          "name": "",
          "type": "uint8"
        }
      ],
      "stateMutability": "view",
      "type": "function"
    },
    {
      "inputs": [
        {
          "internalType": "address",
          "name": "spender",
          "type": "address"
        },
        {
          "internalType": "uint256",
          "name": "subtractedValue",
          "type": "uint256"
        }
      ],
      "name": "decreaseAllowance",
      "outputs": [
        {
          "internalType": "bool",
          "name": "",
          "type": "bool"
        }
      ],
      "stateMutability": "nonpayable",
      "type": "function"
    },
    {
      "inputs": [
        {
          "internalType": "address",
          "name": "spender",
          "type": "address"
        },
        {
          "internalType": "uint256",
          "name": "addedValue",
          "type": "uint256"
        }
      ],
      "name": "increaseAllowance",
      "outputs": [
        {
          "internalType": "bool",
          "name": "",
          "type": "bool"
        }
      ],
      "stateMutability": "nonpayable",
      "type": "function"
    },
    {
      "inputs": [],
      "name": "name",
      "outputs": [
        {
          "internalType": "string",
          "name": "",
          "type": "string"
        }
      ],
      "stateMutability": "view",
      "type": "function"
    },
    {
      "inputs": [
        {
          "internalType": "address",
          "name": "owner",
          "type": "address"
        }
      ],
      "name": "nonces",
      "outputs": [
        {
          "internalType": "uint256",
          "name": "",
          "type": "uint256"
        }
      ],
      "stateMutability": "view",
      "type": "function"
    },
    {
      "inputs": [
        {
          "internalType": "address",
          "name": "owner",
          "type": "address"
        },
        {
          "internalType": "address",
          "name": "spender",
          "type": "address"
        },
        {
          "internalType": "uint256",
          "name": "value",
          "type": "uint256"
        },
        {
          "internalType": "uint256",
          "name": "deadline",
          "type": "uint256"
        },
        {
          "internalType": "uint8",
          "name": "v",
          "type": "uint8"
        },
        {
          "internalType": "bytes32",
          "name": "r",
          "type": "bytes32"
        },
        {
          "internalType": "bytes32",
          "name": "s",
          "type": "bytes32"
        }
      ],
      "name": "permit",
      "outputs": [],
      "stateMutability": "nonpayable",
      "type": "function"
    },
    {
      "inputs": [],
      "name": "symbol",
      "outputs": [
        {
          "internalType": "string",
          "name": "",
          "type": "string"
        }
      ],
      "stateMutability": "view",
      "type": "function"
    },
    {
      "inputs": [],
      "name": "totalSupply",
      "outputs": [
        {
          "internalType": "uint256",
          "name": "",
          "type": "uint256"
        }
      ],
      "stateMutability": "view",
      "type": "function"
    },
    {
      "inputs": [
        {
          "internalType": "address",
          "name": "recipient",
          "type": "address"
        },
        {
          "internalType": "uint256",
          "name": "amount",
          "type": "uint256"
        }
      ],
      "name": "transfer",
      "outputs": [
        {
          "internalType": "bool",
          "name": "",
          "type": "bool"
        }
      ],
      "stateMutability": "nonpayable",
      "type": "function"
    },
    {
      "inputs": [
        {
          "internalType": "address",
          "name": "sender",
          "type": "address"
        },
        {
          "internalType": "address",
          "name": "recipient",
          "type": "address"
        },
        {
          "internalType": "uint256",
          "name": "amount",
          "type": "uint256"
        }
      ],
      "name": "transferFrom",
      "outputs": [
        {
          "internalType": "bool",
          "name": "",
          "type": "bool"
        }
      ],
      "stateMutability": "nonpayable",
      "type": "function"
    }
  ],
  "bytecode": "0x6101406040527f6e71edae12b1b97f4d1f60370fef10105fa2faae0126114a169c64845d6126c9610120908152503480156200003a57600080fd5b506040518060400160405280600781526020017f45746870696e7300000000000000000000000000000000000000000000000000815250806040518060400160405280600181526020017f31000000000000000000000000000000000000000000000000000000000000008152506040518060400160405280600781526020017f45746870696e73000000000000000000000000000000000000000000000000008152506040518060400160405280600481526020017f50494e4f0000000000000000000000000000000000000000000000000000000081525081600390805190602001906200012c929190620003b9565b50806004908051906020019062000145929190620003b9565b50505060008280519060200120905060008280519060200120905060007f8b73c3c69bb8fe3d512ecc4cf759cc79239f7b179b0ffacaa9a75d522b39400f90508260c081815250508160e081815250504660a08181525050620001b08184846200020a60201b60201c565b608081815250508061010081815250505050505050506200020433620001db6200024660201b60201c565b600a620001e9919062000628565b6103e8620001f8919062000765565b6200024f60201b60201c565b620008e5565b6000838383463060405160200162000227959493929190620004c3565b6040516020818303038152906040528051906020012090509392505050565b60006012905090565b600073ffffffffffffffffffffffffffffffffffffffff168273ffffffffffffffffffffffffffffffffffffffff161415620002c2576040517f08c379a0000000000000000000000000000000000000000000000000000000008152600401620002b99062000520565b60405180910390fd5b620002d660008383620003b460201b60201c565b8060026000828254620002ea919062000570565b92505081905550806000808473ffffffffffffffffffffffffffffffffffffffff1673ffffffffffffffffffffffffffffffffffffffff168152602001908152602001600020600082825462000341919062000570565b925050819055508173ffffffffffffffffffffffffffffffffffffffff16600073ffffffffffffffffffffffffffffffffffffffff167fddf252ad1be2c89b69c2b068fc378daa952ba7f163c4a11628f55a4df523b3ef83604051620003a8919062000542565b60405180910390a35050565b505050565b828054620003c7906200081b565b90600052602060002090601f016020900481019282620003eb576000855562000437565b82601f106200040657805160ff191683800117855562000437565b8280016001018555821562000437579182015b828111156200043657825182559160200191906001019062000419565b5b5090506200044691906200044a565b5090565b5b80821115620004655760008160009055506001016200044b565b5090565b6200047481620007c6565b82525050565b6200048581620007da565b82525050565b60006200049a601f836200055f565b9150620004a782620008bc565b602082019050919050565b620004bd8162000804565b82525050565b600060a082019050620004da60008301886200047a565b620004e960208301876200047a565b620004f860408301866200047a565b620005076060830185620004b2565b62000516608083018462000469565b9695505050505050565b600060208201905081810360008301526200053b816200048b565b9050919050565b6000602082019050620005596000830184620004b2565b92915050565b600082825260208201905092915050565b60006200057d8262000804565b91506200058a8362000804565b9250827fffffffffffffffffffffffffffffffffffffffffffffffffffffffffffffffff03821115620005c257620005c162000851565b5b828201905092915050565b6000808291508390505b60018511156200061f57808604811115620005f757620005f662000851565b5b6001851615620006075780820291505b80810290506200061785620008af565b9450620005d7565b94509492505050565b6000620006358262000804565b915062000642836200080e565b9250620006717fffffffffffffffffffffffffffffffffffffffffffffffffffffffffffffffff848462000679565b905092915050565b6000826200068b57600190506200075e565b816200069b57600090506200075e565b8160018114620006b45760028114620006bf57620006f5565b60019150506200075e565b60ff841115620006d457620006d362000851565b5b8360020a915084821115620006ee57620006ed62000851565b5b506200075e565b5060208310610133831016604e8410600b84101617156200072f5782820a90508381111562000729576200072862000851565b5b6200075e565b6200073e8484846001620005cd565b9250905081840481111562000758576200075762000851565b5b81810290505b9392505050565b6000620007728262000804565b91506200077f8362000804565b9250817fffffffffffffffffffffffffffffffffffffffffffffffffffffffffffffffff0483118215151615620007bb57620007ba62000851565b5b828202905092915050565b6000620007d382620007e4565b9050919050565b6000819050919050565b600073ffffffffffffffffffffffffffffffffffffffff82169050919050565b6000819050919050565b600060ff82169050919050565b600060028204905060018216806200083457607f821691505b602082108114156200084b576200084a62000880565b5b50919050565b7f4e487b7100000000000000000000000000000000000000000000000000000000600052601160045260246000fd5b7f4e487b7100000000000000000000000000000000000000000000000000000000600052602260045260246000fd5b60008160011c9050919050565b7f45524332303a206d696e7420746f20746865207a65726f206164647265737300600082015250565b60805160a05160c05160e051610100516101205161235962000935600039600061090901526000610f3401526000610f7601526000610f5501526000610ee101526000610f0901526123596000f3fe608060405234801561001057600080fd5b50600436106101005760003560e01c806370a0823111610097578063a457c2d711610066578063a457c2d7146102c3578063a9059cbb146102f3578063d505accf14610323578063dd62ed3e1461033f57610100565b806370a082311461022957806379cc6790146102595780637ecebe001461027557806395d89b41146102a557610100565b8063313ce567116100d3578063313ce567146101a15780633644e515146101bf57806339509351146101dd57806342966c681461020d57610100565b806306fdde0314610105578063095ea7b31461012357806318160ddd1461015357806323b872dd14610171575b600080fd5b61010d61036f565b60405161011a9190611a49565b60405180910390f35b61013d600480360381019061013891906115b3565b610401565b60405161014a919061191a565b60405180910390f35b61015b61041f565b6040516101689190611c4b565b60405180910390f35b61018b600480360381019061018691906114c6565b610429565b604051610198919061191a565b60405180910390f35b6101a961052a565b6040516101b69190611c66565b60405180910390f35b6101c7610533565b6040516101d49190611935565b60405180910390f35b6101f760048036038101906101f291906115b3565b610542565b604051610204919061191a565b60405180910390f35b610227600480360381019061022291906115ef565b6105ee565b005b610243600480360381019061023e9190611461565b610602565b6040516102509190611c4b565b60405180910390f35b610273600480360381019061026e91906115b3565b61064a565b005b61028f600480360381019061028a9190611461565b6106ce565b60405161029c9190611c4b565b60405180910390f35b6102ad61071e565b6040516102ba9190611a49565b60405180910390f35b6102dd60048036038101906102d891906115b3565b6107b0565b6040516102ea919061191a565b60405180910390f35b61030d600480360381019061030891906115b3565b6108a4565b60405161031a919061191a565b60405180910390f35b61033d60048036038101906103389190611515565b6108c2565b005b6103596004803603810190610354919061148a565b610a04565b6040516103669190611c4b565b60405180910390f35b60606003805461037e90611dc4565b80601f01602080910402602001604051908101604052809291908181526020018280546103aa90611dc4565b80156103f75780601f106103cc576101008083540402835291602001916103f7565b820191906000526020600020905b8154815290600101906020018083116103da57829003601f168201915b5050505050905090565b600061041561040e610a8b565b8484610a93565b6001905092915050565b6000600254905090565b6000610436848484610c5e565b6000600160008673ffffffffffffffffffffffffffffffffffffffff1673ffffffffffffffffffffffffffffffffffffffff1681526020019081526020016000206000610481610a8b565b73ffffffffffffffffffffffffffffffffffffffff1673ffffffffffffffffffffffffffffffffffffffff16815260200190815260200160002054905082811015610501576040517f08c379a00000000000000000000000000000000000000000000000000000000081526004016104f890611b8b565b60405180910390fd5b61051e8561050d610a8b565b85846105199190611cfe565b610a93565b60019150509392505050565b60006012905090565b600061053d610edd565b905090565b60006105e461054f610a8b565b84846001600061055d610a8b565b73ffffffffffffffffffffffffffffffffffffffff1673ffffffffffffffffffffffffffffffffffffffff16815260200190815260200160002060008873ffffffffffffffffffffffffffffffffffffffff1673ffffffffffffffffffffffffffffffffffffffff168152602001908152602001600020546105df9190611ca8565b610a93565b6001905092915050565b6105ff6105f9610a8b565b82610fa0565b50565b60008060008373ffffffffffffffffffffffffffffffffffffffff1673ffffffffffffffffffffffffffffffffffffffff168152602001908152602001600020549050919050565b600061065d83610658610a8b565b610a04565b9050818110156106a2576040517f08c379a000000000000000000000000000000000000000000000000000000000815260040161069990611bab565b60405180910390fd5b6106bf836106ae610a8b565b84846106ba9190611cfe565b610a93565b6106c98383610fa0565b505050565b6000610717600560008473ffffffffffffffffffffffffffffffffffffffff1673ffffffffffffffffffffffffffffffffffffffff168152602001908152602001600020611174565b9050919050565b60606004805461072d90611dc4565b80601f016020809104026020016040519081016040528092919081815260200182805461075990611dc4565b80156107a65780601f1061077b576101008083540402835291602001916107a6565b820191906000526020600020905b81548152906001019060200180831161078957829003601f168201915b5050505050905090565b600080600160006107bf610a8b565b73ffffffffffffffffffffffffffffffffffffffff1673ffffffffffffffffffffffffffffffffffffffff16815260200190815260200160002060008573ffffffffffffffffffffffffffffffffffffffff1673ffffffffffffffffffffffffffffffffffffffff1681526020019081526020016000205490508281101561087c576040517f08c379a000000000000000000000000000000000000000000000000000000000815260040161087390611c2b565b60405180910390fd5b610899610887610a8b565b8585846108949190611cfe565b610a93565b600191505092915050565b60006108b86108b1610a8b565b8484610c5e565b6001905092915050565b83421115610905576040517f08c379a00000000000000000000000000000000000000000000000000000000081526004016108fc90611aeb565b60405180910390fd5b60007f00000000000000000000000000000000000000000000000000000000000000008888886109348c611182565b8960405160200161094a96959493929190611950565b604051602081830303815290604052805190602001209050600061096d826111e0565b9050600061097d828787876111fa565b90508973ffffffffffffffffffffffffffffffffffffffff168173ffffffffffffffffffffffffffffffffffffffff16146109ed576040517f08c379a00000000000000000000000000000000000000000000000000000000081526004016109e490611b6b565b60405180910390fd5b6109f88a8a8a610a93565b50505050505050505050565b6000600160008473ffffffffffffffffffffffffffffffffffffffff1673ffffffffffffffffffffffffffffffffffffffff16815260200190815260200160002060008373ffffffffffffffffffffffffffffffffffffffff1673ffffffffffffffffffffffffffffffffffffffff16815260200190815260200160002054905092915050565b600033905090565b600073ffffffffffffffffffffffffffffffffffffffff168373ffffffffffffffffffffffffffffffffffffffff161415610b03576040517f08c379a0000000000000000000000000000000000000000000000000000000008152600401610afa90611c0b565b60405180910390fd5b600073ffffffffffffffffffffffffffffffffffffffff168273ffffffffffffffffffffffffffffffffffffffff161415610b73576040517f08c379a0000000000000000000000000000000000000000000000000000000008152600401610b6a90611acb565b60405180910390fd5b80600160008573ffffffffffffffffffffffffffffffffffffffff1673ffffffffffffffffffffffffffffffffffffffff16815260200190815260200160002060008473ffffffffffffffffffffffffffffffffffffffff1673ffffffffffffffffffffffffffffffffffffffff168152602001908152602001600020819055508173ffffffffffffffffffffffffffffffffffffffff168373ffffffffffffffffffffffffffffffffffffffff167f8c5be1e5ebec7d5bd14f71427d1e84f3dd0314c0f7b2291e5b200ac8c7c3b92583604051610c519190611c4b565b60405180910390a3505050565b600073ffffffffffffffffffffffffffffffffffffffff168373ffffffffffffffffffffffffffffffffffffffff161415610cce576040517f08c379a0000000000000000000000000000000000000000000000000000000008152600401610cc590611beb565b60405180910390fd5b600073ffffffffffffffffffffffffffffffffffffffff168273ffffffffffffffffffffffffffffffffffffffff161415610d3e576040517f08c379a0000000000000000000000000000000000000000000000000000000008152600401610d3590611a8b565b60405180910390fd5b610d49838383611385565b60008060008573ffffffffffffffffffffffffffffffffffffffff1673ffffffffffffffffffffffffffffffffffffffff16815260200190815260200160002054905081811015610dcf576040517f08c379a0000000000000000000000000000000000000000000000000000000008152600401610dc690611b0b565b60405180910390fd5b8181610ddb9190611cfe565b6000808673ffffffffffffffffffffffffffffffffffffffff1673ffffffffffffffffffffffffffffffffffffffff16815260200190815260200160002081905550816000808573ffffffffffffffffffffffffffffffffffffffff1673ffffffffffffffffffffffffffffffffffffffff1681526020019081526020016000206000828254610e6b9190611ca8565b925050819055508273ffffffffffffffffffffffffffffffffffffffff168473ffffffffffffffffffffffffffffffffffffffff167fddf252ad1be2c89b69c2b068fc378daa952ba7f163c4a11628f55a4df523b3ef84604051610ecf9190611c4b565b60405180910390a350505050565b60007f0000000000000000000000000000000000000000000000000000000000000000461415610f2f577f00000000000000000000000000000000000000000000000000000000000000009050610f9d565b610f9a7f00000000000000000000000000000000000000000000000000000000000000007f00000000000000000000000000000000000000000000000000000000000000007f000000000000000000000000000000000000000000000000000000000000000061138a565b90505b90565b600073ffffffffffffffffffffffffffffffffffffffff168273ffffffffffffffffffffffffffffffffffffffff161415611010576040517f08c379a000000000000000000000000000000000000000000000000000000000815260040161100790611bcb565b60405180910390fd5b61101c82600083611385565b60008060008473ffffffffffffffffffffffffffffffffffffffff1673ffffffffffffffffffffffffffffffffffffffff168152602001908152602001600020549050818110156110a2576040517f08c379a000000000000000000000000000000000000000000000000000000000815260040161109990611aab565b60405180910390fd5b81816110ae9190611cfe565b6000808573ffffffffffffffffffffffffffffffffffffffff1673ffffffffffffffffffffffffffffffffffffffff1681526020019081526020016000208190555081600260008282546111029190611cfe565b92505081905550600073ffffffffffffffffffffffffffffffffffffffff168373ffffffffffffffffffffffffffffffffffffffff167fddf252ad1be2c89b69c2b068fc378daa952ba7f163c4a11628f55a4df523b3ef846040516111679190611c4b565b60405180910390a3505050565b600081600001549050919050565b600080600560008473ffffffffffffffffffffffffffffffffffffffff1673ffffffffffffffffffffffffffffffffffffffff16815260200190815260200160002090506111cf81611174565b91506111da816113c4565b50919050565b60006111f36111ed610edd565b836113da565b9050919050565b60007f7fffffffffffffffffffffffffffffff5d576e7357a4501ddfe92f46681b20a08260001c1115611262576040517f08c379a000000000000000000000000000000000000000000000000000000000815260040161125990611b2b565b60405180910390fd5b601b8460ff1614806112775750601c8460ff16145b6112b6576040517f08c379a00000000000000000000000000000000000000000000000000000000081526004016112ad90611b4b565b60405180910390fd5b6000600186868686604051600081526020016040526040516112db9493929190611a04565b6020604051602081039080840390855afa1580156112fd573d6000803e3d6000fd5b505050602060405103519050600073ffffffffffffffffffffffffffffffffffffffff168173ffffffffffffffffffffffffffffffffffffffff161415611379576040517f08c379a000000000000000000000000000000000000000000000000000000000815260040161137090611a6b565b60405180910390fd5b80915050949350505050565b505050565b600083838346306040516020016113a59594939291906119b1565b6040516020818303038152906040528051906020012090509392505050565b6001816000016000828254019250508190555050565b600082826040516020016113ef9291906118e3565b60405160208183030381529060405280519060200120905092915050565b60008135905061141c816122c7565b92915050565b600081359050611431816122de565b92915050565b600081359050611446816122f5565b92915050565b60008135905061145b8161230c565b92915050565b60006020828403121561147357600080fd5b60006114818482850161140d565b91505092915050565b6000806040838503121561149d57600080fd5b60006114ab8582860161140d565b92505060206114bc8582860161140d565b9150509250929050565b6000806000606084860312156114db57600080fd5b60006114e98682870161140d565b93505060206114fa8682870161140d565b925050604061150b86828701611437565b9150509250925092565b600080600080600080600060e0888a03121561153057600080fd5b600061153e8a828b0161140d565b975050602061154f8a828b0161140d565b96505060406115608a828b01611437565b95505060606115718a828b01611437565b94505060806115828a828b0161144c565b93505060a06115938a828b01611422565b92505060c06115a48a828b01611422565b91505092959891949750929550565b600080604083850312156115c657600080fd5b60006115d48582860161140d565b92505060206115e585828601611437565b9150509250929050565b60006020828403121561160157600080fd5b600061160f84828501611437565b91505092915050565b61162181611d32565b82525050565b61163081611d44565b82525050565b61163f81611d50565b82525050565b61165661165182611d50565b611df6565b82525050565b600061166782611c81565b6116718185611c8c565b9350611681818560208601611d91565b61168a81611e5e565b840191505092915050565b60006116a2601883611c8c565b91506116ad82611e6f565b602082019050919050565b60006116c5602383611c8c565b91506116d082611e98565b604082019050919050565b60006116e8602283611c8c565b91506116f382611ee7565b604082019050919050565b600061170b602283611c8c565b915061171682611f36565b604082019050919050565b600061172e600283611c9d565b915061173982611f85565b600282019050919050565b6000611751601d83611c8c565b915061175c82611fae565b602082019050919050565b6000611774602683611c8c565b915061177f82611fd7565b604082019050919050565b6000611797602283611c8c565b91506117a282612026565b604082019050919050565b60006117ba602283611c8c565b91506117c582612075565b604082019050919050565b60006117dd601e83611c8c565b91506117e8826120c4565b602082019050919050565b6000611800602883611c8c565b915061180b826120ed565b604082019050919050565b6000611823602483611c8c565b915061182e8261213c565b604082019050919050565b6000611846602183611c8c565b91506118518261218b565b604082019050919050565b6000611869602583611c8c565b9150611874826121da565b604082019050919050565b600061188c602483611c8c565b915061189782612229565b604082019050919050565b60006118af602583611c8c565b91506118ba82612278565b604082019050919050565b6118ce81611d7a565b82525050565b6118dd81611d84565b82525050565b60006118ee82611721565b91506118fa8285611645565b60208201915061190a8284611645565b6020820191508190509392505050565b600060208201905061192f6000830184611627565b92915050565b600060208201905061194a6000830184611636565b92915050565b600060c0820190506119656000830189611636565b6119726020830188611618565b61197f6040830187611618565b61198c60608301866118c5565b61199960808301856118c5565b6119a660a08301846118c5565b979650505050505050565b600060a0820190506119c66000830188611636565b6119d36020830187611636565b6119e06040830186611636565b6119ed60608301856118c5565b6119fa6080830184611618565b9695505050505050565b6000608082019050611a196000830187611636565b611a2660208301866118d4565b611a336040830185611636565b611a406060830184611636565b95945050505050565b60006020820190508181036000830152611a63818461165c565b905092915050565b60006020820190508181036000830152611a8481611695565b9050919050565b60006020820190508181036000830152611aa4816116b8565b9050919050565b60006020820190508181036000830152611ac4816116db565b9050919050565b60006020820190508181036000830152611ae4816116fe565b9050919050565b60006020820190508181036000830152611b0481611744565b9050919050565b60006020820190508181036000830152611b2481611767565b9050919050565b60006020820190508181036000830152611b448161178a565b9050919050565b60006020820190508181036000830152611b64816117ad565b9050919050565b60006020820190508181036000830152611b84816117d0565b9050919050565b60006020820190508181036000830152611ba4816117f3565b9050919050565b60006020820190508181036000830152611bc481611816565b9050919050565b60006020820190508181036000830152611be481611839565b9050919050565b60006020820190508181036000830152611c048161185c565b9050919050565b60006020820190508181036000830152611c248161187f565b9050919050565b60006020820190508181036000830152611c44816118a2565b9050919050565b6000602082019050611c6060008301846118c5565b92915050565b6000602082019050611c7b60008301846118d4565b92915050565b600081519050919050565b600082825260208201905092915050565b600081905092915050565b6000611cb382611d7a565b9150611cbe83611d7a565b9250827fffffffffffffffffffffffffffffffffffffffffffffffffffffffffffffffff03821115611cf357611cf2611e00565b5b828201905092915050565b6000611d0982611d7a565b9150611d1483611d7a565b925082821015611d2757611d26611e00565b5b828203905092915050565b6000611d3d82611d5a565b9050919050565b60008115159050919050565b6000819050919050565b600073ffffffffffffffffffffffffffffffffffffffff82169050919050565b6000819050919050565b600060ff82169050919050565b60005b83811015611daf578082015181840152602081019050611d94565b83811115611dbe576000848401525b50505050565b60006002820490506001821680611ddc57607f821691505b60208210811415611df057611def611e2f565b5b50919050565b6000819050919050565b7f4e487b7100000000000000000000000000000000000000000000000000000000600052601160045260246000fd5b7f4e487b7100000000000000000000000000000000000000000000000000000000600052602260045260246000fd5b6000601f19601f8301169050919050565b7f45434453413a20696e76616c6964207369676e61747572650000000000000000600082015250565b7f45524332303a207472616e7366657220746f20746865207a65726f206164647260008201527f6573730000000000000000000000000000000000000000000000000000000000602082015250565b7f45524332303a206275726e20616d6f756e7420657863656564732062616c616e60008201527f6365000000000000000000000000000000000000000000000000000000000000602082015250565b7f45524332303a20617070726f766520746f20746865207a65726f20616464726560008201527f7373000000000000000000000000000000000000000000000000000000000000602082015250565b7f1901000000000000000000000000000000000000000000000000000000000000600082015250565b7f45524332305065726d69743a206578706972656420646561646c696e65000000600082015250565b7f45524332303a207472616e7366657220616d6f756e742065786365656473206260008201527f616c616e63650000000000000000000000000000000000000000000000000000602082015250565b7f45434453413a20696e76616c6964207369676e6174757265202773272076616c60008201527f7565000000000000000000000000000000000000000000000000000000000000602082015250565b7f45434453413a20696e76616c6964207369676e6174757265202776272076616c60008201527f7565000000000000000000000000000000000000000000000000000000000000602082015250565b7f45524332305065726d69743a20696e76616c6964207369676e61747572650000600082015250565b7f45524332303a207472616e7366657220616d6f756e742065786365656473206160008201527f6c6c6f77616e6365000000000000000000000000000000000000000000000000602082015250565b7f45524332303a206275726e20616d6f756e74206578636565647320616c6c6f7760008201527f616e636500000000000000000000000000000000000000000000000000000000602082015250565b7f45524332303a206275726e2066726f6d20746865207a65726f2061646472657360008201527f7300000000000000000000000000000000000000000000000000000000000000602082015250565b7f45524332303a207472616e736665722066726f6d20746865207a65726f20616460008201527f6472657373000000000000000000000000000000000000000000000000000000602082015250565b7f45524332303a20617070726f76652066726f6d20746865207a65726f2061646460008201527f7265737300000000000000000000000000000000000000000000000000000000602082015250565b7f45524332303a2064656372656173656420616c6c6f77616e63652062656c6f7760008201527f207a65726f000000000000000000000000000000000000000000000000000000602082015250565b6122d081611d32565b81146122db57600080fd5b50565b6122e781611d50565b81146122f257600080fd5b50565b6122fe81611d7a565b811461230957600080fd5b50565b61231581611d84565b811461232057600080fd5b5056fea26469706673582212209161f3647d7c95c216ee2a606c1fe687388066e944b811a4a984b27fea0596c564736f6c63430008030033",
  "linkReferences": {},
  "deployedLinkReferences": {}
}